:020000040000FA
:040000009EEF0BF074
:1006000000010204002053656E686120696E636F0B
:100610007272657461200045737461646F3A2041A1
:1006200075746F202020200045737461646F3A2038
:100630004D616E75616C2020002053656E686120ED
:10064000636F727265746120004469676974652024
:10065000612073656E68613A00446967697465205A
:1006600073656E6861004A616E656C613A20004690
:1006700065636861646F200046656368616E646FDE
:10068000004162657274612000616E746967613A4D
:1006900000416272696E646F00486F72613A2000B7
:0906A0006E6F76613A002A000039
:1006AA00100E926E0F0E936E000E956E000E966EE1
:1006BA00010E946E0F0EC16E94909690000E446EC9
:1006CA00050E436E11EC0BF0CDEC0BF00C0E87EC23
:1006DA000BF0010E87EC0BF017501810D8A478EF26
:1006EA0003F07AEF03F036EF05F0010E87EC0BF01A
:1006FA000F0E936E000E956E84A086EF03F088EFBE
:10070A0003F090EF03F0000E166E000E156E000E49
:10071A00446E050E436E82A095EF03F097EF03F047
:10072A009FEF03F0000E166E020E156E000E446E59
:10073A00050E436E81B0A4EF03F0A6EF03F0ADEF10
:10074A0003F082B0ABEF03F0ADEF03F0BBEF03F0C1
:10075A0081B0B2EF03F0B4EF03F0EFEF03F084A03F
:10076A00B9EF03F0BBEF03F0EFEF03F0000E936E67
:10077A008180D9EC08F02DC017F02EC018F01704AC
:10078A001810D8A4CBEF03F0CDEF03F0CFEF03F0AE
:10079A0071EF03F084A0D4EF03F0D6EF03F0E0EF9B
:1007AA0003F0000E166E000E156E000E446E050E56
:1007BA00436EEFEF03F082A0E5EF03F0E7EF03F0FB
:1007CA00EFEF03F0000E166E020E156E000E446E69
:1007DA00050E436E0F0E936E000E956E81B4F8EF00
:1007EA0003F0FAEF03F001EF04F082B0FFEF03F039
:1007FA0001EF04F00FEF04F081B406EF04F008EF04
:10080A0004F034EF04F084A00DEF04F00FEF04F0CD
:10081A0034EF04F0000E936E8184C5EC06F084A0D8
:10082A0019EF04F01BEF04F025EF04F0000E166E2A
:10083A00000E156E000E446E050E436E34EF04F082
:10084A0082A02AEF04F02CEF04F034EF04F0000E3B
:10085A00166E020E156E000E446E050E436E0F0ED6
:10086A00936E000E956E800E87EC0BF0170E266EB7
:10087A00060E276EA1EC0AF0270E266E060E276ECC
:10088A00A1EC0AF0B2EC09F0C00E87EC0BF0990E5D
:10089A00266E060E276EA1EC0AF0190E266E000EC1
:1008AA00276EA1EC0AF0260E266E060E276EA1EC24
:1008BA000AF0D00E87EC0BF0660E266E060E276E37
:1008CA00A1EC0AF0360E1A18D8A46EEF04F070EFF5
:1008DA0004F09BEF04F0300E1C18D8A477EF04F054
:1008EA0079EF04F09BEF04F0300E1D18D8A480EFC6
:1008FA0004F082EF04F09BEF04F015041610D8A45C
:10090A0089EF04F08BEF04F09BEF04F0D80E87EC2C
:10091A000BF0910E266E060E276EA1EC0AF084905B
:10092A00000E426E010E416E154A162A050E431834
:10093A004410D8A4A3EF04F0A5EF04F0C3EF04F029
:10094A00020E15181610D8A4ADEF04F0AFEF04F09C
:10095A00C3EF04F0D80E87EC0BF0810E266E060E5C
:10096A00276EA1EC0AF08280000E426E000E416EE4
:10097A00000E446E000E436E154A162A310E1918DF
:10098A00D8A4CAEF04F0CCEF04F002EF05F0380E59
:10099A001A18D8A4D3EF04F0D5EF04F002EF05F04B
:1009AA00300E1C18D8A4DCEF04F0DEEF04F002EFDE
:1009BA0005F01D50D8B4E4EF04F0E6EF04F002EFBE
:1009CA0005F0030E15181610D8A4EEEF04F0F0EF98
:1009DA0004F002EF05F0D80E87EC0BF0780E266EC5
:1009EA00060E276EA1EC0AF08290000E426E010EEE
:1009FA00416E000E166E000E156E15501610D8A414
:100A0A0009EF05F00BEF05F029EF05F0050E431885
:100A1A004410D8A413EF05F015EF05F029EF05F0FF
:100A2A00D80E87EC0BF06F0E266E060E276EA1EC21
:100A3A000AF08480154A162A000E426E000E416E94
:100A4A00000E446E000E436E41044210D8A430EFEB
:100A5A0005F032EF05F09FEF03F0434A442A9FEF77
:100A6A0003F017041810D8A43DEF05F03FEF05F086
:100A7A0071EF03F0010E87EC0BF00F0E936E000E70
:100A8A00956E84A04BEF05F04DEF05F057EF05F09A
:100A9A00000E166E000E156E000E446E050E436EA5
:100AAA0066EF05F082A05CEF05F05EEF05F066EFF9
:100ABA0005F0000E166E020E156E000E446E050E3F
:100ACA00436E81B06BEF05F06DEF05F074EF05F042
:100ADA0082B072EF05F074EF05F082EF05F081B095
:100AEA0079EF05F07BEF05F0B8EF05F084A080EF11
:100AFA0005F082EF05F0B8EF05F0000E936E8180E5
:100B0A00D9EC08F02DC017F02EC018F017501810A5
:100B1A00D8A492EF05F094EF05F096EF05F071EF87
:100B2A0003F084A09BEF05F09DEF05F0A7EF05F019
:100B3A00000E166E000E156E000E446E050E436E04
:100B4A00B8EF05F082A0ACEF05F0AEEF05F0B8EF14
:100B5A0005F0000E166E020E156E000E446E050E9E
:100B6A00436EB8EF05F081B4BDEF05F0BFEF05F0B5
:100B7A00C6EF05F082B0C4EF05F0C6EF05F0D4EF7A
:100B8A0005F081B4CBEF05F0CDEF05F0F9EF05F0F4
:100B9A0084A0D2EF05F0D4EF05F0F9EF05F0000ECE
:100BAA00936E8184C5EC06F084A0DEEF05F0E0EFD9
:100BBA0005F0EAEF05F0000E166E000E156E000E37
:100BCA00446E050E436EF9EF05F082A0EFEF05F0D3
:100BDA00F1EF05F0F9EF05F0000E166E020E156E34
:100BEA00000E446E050E436E0F0E936E800E87EC58
:100BFA000BF0280E266E060E276EA1EC0AF0B2EC58
:100C0A0009F0C00E87EC0BF0990E266E060E276EC1
:100C1A00A1EC0AF0190E266E000E276EA1EC0AF05E
:100C2A00260E266E060E276EA1EC0AF0D00E87EC71
:100C3A000BF0660E266E060E276EA1EC0AF081B244
:100C4A0029EF06F02BEF06F044EF06F01504161014
:100C5A00D8A432EF06F034EF06F044EF06F0D80ECF
:100C6A0087EC0BF0910E266E060E276EA1EC0AF0A9
:100C7A008490000E426E010E416E154A162A050E28
:100C8A0043184410D8A44CEF06F04EEF06F06CEF70
:100C9A0006F0020E15181610D8A456EF06F058EFF3
:100CAA0006F06CEF06F0D80E87EC0BF0810E266E7C
:100CBA00060E276EA1EC0AF08280154A162A000E4B
:100CCA00426E000E416E000E446E000E436E81B2FB
:100CDA0071EF06F073EF06F08FEF06F0030E1518AA
:100CEA001610D8A47BEF06F07DEF06F08FEF06F022
:100CFA00D80E87EC0BF0780E266E060E276EA1EC46
:100D0A000AF08290000E426E010E416E000E166EBF
:100D1A00000E156E050E43184410D8A497EF06F07E
:100D2A0099EF06F0B6EF06F015501610D8A4A0EF0A
:100D3A0006F0A2EF06F0B6EF06F0D80E87EC0BF03D
:100D4A006F0E266E060E276EA1EC0AF08480154AF5
:100D5A00162A000E426E000E416E000E446E000E00
:100D6A00436E41044210D8A4BDEF06F0BFEF06F06F
:100D7A0066EF05F0434A442A66EF05F000EF00F0FB
:100D8A00000E3E6E010E87EC0BF0800E87EC0BF026
:100D9A00590E266E060E276EA1EC0AF0C00E87ECDD
:100DAA000BF0890E266E060E276EA1EC0AF0000ED5
:100DBA003F6EF00E936E0F0E956EEBEC07F0406EE1
:100DCA004028D8B4EBEF06F0EDEF06F0E2EF06F0BC
:100DDA00000E956E0A0E4018D8A4F6EF06F0F8EF4A
:100DEA0006F0FDEF06F04050200F406E0EEF07F0C0
:100DFA000C0E4018D8A404EF07F006EF07F00BEF2B
:100E0A0007F04050170F406E0EEF07F04050300FBA
:100E1A00406E3F50900F87EC0BF0405070EC0BF097
:100E2A00020E386E040E376EBA0EE82EFED7372E33
:100E3A00FCD7382EFAD700D03F50900F87EC0BF032
:100E4A00A60E266E060E276EA1EC0AF0390E3F2476
:100E5A00D96EDA6A000EDA2240C0DFFF390E3F246B
:100E6A00D96EDA6A000EDA223FC028F0296ADDEC70
:100E7A000AF0386EDE503818D8A446EF07F048EF6B
:100E8A0007F049EF07F03E2A3F2A040E3F6450EF6D
:100E9A0007F052EF07F0DEEF06F0050E3E18D8A471
:100EAA0059EF07F05BEF07F0D4EF07F0010E87EC7C
:100EBA000BF0800E87EC0BF0590E266E060E276E8D
:100ECA00A1EC0AF0C00E87EC0BF0A00E266E060EFF
:100EDA00276EA1EC0AF0000E3F6EF00E936E0F0E15
:100EEA00956EEBEC07F0406E4028D8B47FEF07F020
:100EFA0081EF07F076EF07F0000E956E0A0E4018A4
:100F0A00D8A48AEF07F08CEF07F091EF07F0405072
:100F1A00200F406EA2EF07F00C0E4018D8A498EFED
:100F2A0007F09AEF07F09FEF07F04050170F406E57
:100F3A00A2EF07F04050300F406E3F50900F87EC01
:100F4A000BF0405070EC0BF0020E386E040E376E48
:100F5A00BA0EE82EFED7372EFCD7382EFAD700D095
:100F6A003F50900F87EC0BF0A60E266E060E276EEA
:100F7A00A1EC0AF03FC02DF02E6A40C02FF01EEC03
:100F8A000AF03F2A040E3F64CDEF07F0CFEF07F0D7
:100F9A0072EF07F0010E87EC0BF0EAEF07F0010E93
:100FAA0087EC0BF0800E87EC0BF0050E266E060E12
:100FBA00276EA1EC0AF0820E376EDE0EE82EFED7FF
:100FCA00372EFCD7010E87EC0BF01200000E256EAF
:100FDA00000E246E000E296E81CF26F0000E286EB8
:100FEA002768A5EF08F0000E2A6E010E2A24F66E75
:100FFA00F76A060EF7220800F550FF0A811283B637
:10100A0009EF08F00BEF08F025EF08F0070E236E42
:10101A007D0EE82EFED7232EFCD700F083B618EFFC
:10102A0008F01AEF08F025EF08F083A61FEF08F082
:10103A0021EF08F01AEF08F02A28296E9DEF08F030
:10104A0083B42AEF08F02CEF08F047EF08F0070EF8
:10105A00236E7D0EE82EFED7232EFCD700F083B434
:10106A0039EF08F03BEF08F047EF08F083A440EFB0
:10107A0008F042EF08F03BEF08F02A50040F296EFF
:10108A009DEF08F083B24CEF08F04EEF08F069EFDD
:10109A0008F0070E236E7D0EE82EFED7232EFCD70E
:1010AA0000F083B25BEF08F05DEF08F069EF08F03B
:1010BA0083A262EF08F064EF08F05DEF08F02A50AF
:1010CA00070F296E9DEF08F083B06EEF08F070EFFE
:1010DA0008F08BEF08F0070E236E7D0EE82EFED780
:1010EA00232EFCD700F083B07DEF08F07FEF08F0E5
:1010FA008BEF08F083A084EF08F086EF08F07FEF0B
:10110A0008F02A500A0F296E9DEF08F0010E2A24D2
:10111A00F66EF76A060EF7220800F55081162A2A9B
:10112A00020E2A649BEF08F09DEF08F0FAEF07F031
:10113A00FA0E00D0E82EFDD7050E2426000E252231
:10114A002750245C28502558D8A0AEEF08F0B0EFFD
:10115A0008F0B9EF08F027502810D8A4B7EF08F024
:10116A00B9EF08F0C1EF08F02950D8B4BFEF08F082
:10117A00C1EF08F0F8EF07F02950D8A4C7EF08F03C
:10118A00C9EF08F0CAEF08F029680B0E2918D8A48D
:10119A00D1EF08F0D3EF08F0D5EF08F0000E296E72
:1011AA0026C081FF29501200000E366E010E87EC10
:1011BA000BF0800E87EC0BF0490E266E060E276E9A
:1011CA00A1EC0AF0000E376EF00E936E0F0E956EBC
:1011DA00EBEC07F0386E3828D8B4F6EF08F0F8EFE1
:1011EA0008F0EDEF08F0000E956E0A0E3818D8A434
:1011FA0001EF09F003EF09F008EF09F03850200F6A
:10120A00386E19EF09F00C0E3818D8A40FEF09F050
:10121A0011EF09F016EF09F03850170F386E19EF71
:10122A0009F03850300F386E3750C00F87EC0BF08A
:10123A00385070EC0BF0020E306E040E2F6EBA0EA0
:10124A00E82EFED72F2EFCD7302EFAD700D03750F3
:10125A00C00F87EC0BF0A60E266E060E276EA1ECC9
:10126A000AF0310E3724D96EDA6A000EDA2238C053
:10127A00DFFF310E3724D96EDA6A000EDA2237C060
:10128A0028F0296ADDEC0AF0306EDE503018D8A456
:10129A0051EF09F053EF09F054EF09F0362A372AD3
:1012AA00040E37645BEF09F05DEF09F0E9EF08F02F
:1012BA00050E3618D8A464EF09F066EF09F094EF2A
:1012CA0009F0010E87EC0BF0800E87EC0BF0390E5B
:1012DA00266E060E276EA1EC0AF0270E266E060E63
:1012EA00276EA1EC0AF0820E2F6EDE0EE82EFED7D4
:1012FA002F2EFCD717501810D8A486EF09F088EFC4
:10130A0009F08EEF09F0000E186E010E176EADEFA0
:10131A0009F0000E186E000E176EADEF09F0010EFF
:10132A0087EC0BF0800E87EC0BF0050E266E060E8E
:10133A00276EA1EC0AF0270E266E060E276EA1EC88
:10134A000AF0820E2F6EDE0EE82EFED72F2EFCD765
:10135A0017C02DF018C02EF01200BAEC0BF0D00E08
:10136A0042EC0BF0000E42EC0BF0BAEC0BF0D10E93
:10137A0042EC0BF0010E60EC0AF07F0B286E3A0E7D
:10138A001E6E2850C2EC0BF01F6E2850C8EC0BF0F2
:10139A00206E000E216E010E60EC0AF07F0B286EA3
:1013AA003A0E1B6E2850C2EC0BF01C6E2850C8EC8B
:1013BA000BF01D6E010E60EC0AF03F0B286E2850F0
:1013CA00C2EC0BF0196E2850C8EC0BF01A6E010E25
:1013DA0060EC0AF0010E60EC0AF03F0B286E285010
:1013EA00C2EC0BF00B6E2850C8EC0BF00C6E010E21
:1013FA0060EC0AF01F0B286E2F0E0D6E2850C2ECFF
:10140A000BF00E6E2850C8EC0BF00F6E000E60EC5D
:10141A000AF0286E2F0E106E2850C2EC0BF0116ED7
:10142A002850C8EC0BF0126E000E136EB2EC0BF0E3
:10143A0012002FC035F0366A2E50010B326E2DC0C5
:10144A0033F0000E346EBAEC0BF03250D8B430EFF1
:10145A000AF032EF0AF037EF0AF0A20E42EC0BF074
:10146A003AEF0AF0A00E42EC0BF0335042EC0BF0CC
:10147A00355042EC0BF0B2EC0BF0342A2DC028F0B8
:10148A002EC029F0DDEC0AF0306E316A3550301882
:10149A0009E136503118D8B455EF0AF057EF0AF07F
:1014AA005FEF0AF0090E34645DEF0AF05FEF0AF0AD
:1014BA0028EF0AF01200256E000E266E8296948896
:1014CA008288000E276E8286A9EC0BF02750070847
:1014DA00236E82B873EF0AF077EF0AF0246A242A9F
:1014EA0078EF0AF0246A232A7DEF0AF0D89024368E
:1014FA00232E7BEF0AF0245026128296272A070E03
:10150A0027648AEF0AF08CEF0AF068EF0AF09498E1
:10151A002550D8B493EF0AF095EF0AF098EF0AF045
:10152A00829899EF0AF08288A9EC0BF08286A9ECDE
:10153A000BF0829626501200000E2A6EBEEF0AF0B9
:10154A002A502624286E000E2720296E28C0F6FF6E
:10155A0029C0F7FFF86A050EF76403D00800F550B2
:10156A0005D0F6CFE9FFF7CFEAFFEF5070EC0BF0AA
:10157A002A2A2A502624286E000E2720296E28C0DF
:10158A00F6FF29C0F7FFF86A050EF76403D00800D2
:10159A00F55005D0F6CFE9FFF7CFEAFFEF50000983
:1015AA00D8A4DAEF0AF0DCEF0AF0A5EF0AF012008D
:1015BA002950010B2C6E28C02BF0BAEC0BF02C50E2
:1015CA00D8B4EAEF0AF0ECEF0AF0F1EF0AF0A20E53
:1015DA0042EC0BF0F4EF0AF0A00E42EC0BF02B50A9
:1015EA0042EC0BF0BAEC0BF02C50D8B4FFEF0AF037
:1015FA0001EF0BF006EF0BF0A30E42EC0BF009EF34
:10160A000BF0A10E42EC0BF0010E60EC0AF02A6E10
:10161A00B2EC0BF02A50120084928494340E266E97
:10162A00F20EE82EFED7262EFCD78482380E87ECDF
:10163A000BF00D0E266EFC0EE82EFED7262EFCD7DA
:10164A00380E87EC0BF0030E266E980EE82EFED7A6
:10165A00262EFCD7380E87EC0BF0080E87EC0BF021
:10166A000F0E87EC0BF0010E87EC0BF0380E87ECAF
:10167A000BF0800E87EC0BF01200256E8296000E9E
:10168A00266E26500708236E25C024F0232A50EF21
:10169A000BF0D8902432232E4EEF0BF0010E2416B5
:1016AA00243A82502418EF0B2418826E8286A9EC01
:1016BA000BF08296262A070E266466EF0BF068EF77
:1016CA000BF046EF0BF08288A9EC0BF08286A9ECAE
:1016DA000BF082961200256E84822550D1EC0BF015
:1016EA008484080E246ECA0EE82EFED7242EFCD758
:1016FA008492080E246ECA0EE82EFED7242EFCD73A
:10170A0084821200256E84822550D1EC0BF08494D9
:10171A00080E246ECA0EE82EFED7242EFCD7849219
:10172A00080E246ECA0EE82EFED7242EFCD7848219
:10173A00120000EE01F0220EEE6AE806FDE1000E4C
:10174A00F86E000155EF03F000F000F000F000F031
:10175A0000F000F000F000F0120082868298A9ECF6
:10176A000BF08288A9EC0BF0120082868288A9EC21
:10177A000BF08298A9EC0BF01200236E23380F0BA2
:10178A000F0B300F1200236E23500F0B300F120075
:10179A009498828682881200236E23C083FF1200E7
:020000040020DA
:08000000FFFFFFFFFFFFFFFF00
:020000040030CA
:0E000000FF02191EFF8180FF0FC00FE00F40AE
:00000001FF
